{
  "_format": "hh-sol-artifact-1",
  "contractName": "VendingMachineV1",
  "sourceName": "contracts/VendingMachineV1.sol",
  "abi": [
    {
      "inputs": [],
      "stateMutability": "nonpayable",
      "type": "constructor"
    },
    {
      "anonymous": false,
      "inputs": [
        {
          "indexed": false,
          "internalType": "address",
          "name": "previousAdmin",
          "type": "address"
        },
        {
          "indexed": false,
          "internalType": "address",
          "name": "newAdmin",
          "type": "address"
        }
      ],
      "name": "AdminChanged",
      "type": "event"
    },
    {
      "anonymous": false,
      "inputs": [
        {
          "indexed": true,
          "internalType": "address",
          "name": "beacon",
          "type": "address"
        }
      ],
      "name": "BeaconUpgraded",
      "type": "event"
    },
    {
      "anonymous": false,
      "inputs": [
        {
          "indexed": false,
          "internalType": "uint8",
          "name": "version",
          "type": "uint8"
        }
      ],
      "name": "Initialized",
      "type": "event"
    },
    {
      "anonymous": false,
      "inputs": [
        {
          "indexed": true,
          "internalType": "address",
          "name": "previousOwner",
          "type": "address"
        },
        {
          "indexed": true,
          "internalType": "address",
          "name": "newOwner",
          "type": "address"
        }
      ],
      "name": "OwnershipTransferred",
      "type": "event"
    },
    {
      "anonymous": false,
      "inputs": [
        {
          "indexed": true,
          "internalType": "uint256",
          "name": "id",
          "type": "uint256"
        },
        {
          "indexed": false,
          "internalType": "string",
          "name": "name",
          "type": "string"
        },
        {
          "indexed": false,
          "internalType": "uint256",
          "name": "price",
          "type": "uint256"
        },
        {
          "indexed": false,
          "internalType": "uint256",
          "name": "stock",
          "type": "uint256"
        }
      ],
      "name": "ProductAdded",
      "type": "event"
    },
    {
      "anonymous": false,
      "inputs": [
        {
          "indexed": true,
          "internalType": "uint256",
          "name": "id",
          "type": "uint256"
        },
        {
          "indexed": true,
          "internalType": "address",
          "name": "buyer",
          "type": "address"
        },
        {
          "indexed": false,
          "internalType": "uint256",
          "name": "price",
          "type": "uint256"
        }
      ],
      "name": "ProductPurchased",
      "type": "event"
    },
    {
      "anonymous": false,
      "inputs": [
        {
          "indexed": true,
          "internalType": "address",
          "name": "buyer",
          "type": "address"
        },
        {
          "indexed": false,
          "internalType": "uint256",
          "name": "amount",
          "type": "uint256"
        }
      ],
      "name": "RefundSent",
      "type": "event"
    },
    {
      "anonymous": false,
      "inputs": [
        {
          "indexed": true,
          "internalType": "address",
          "name": "implementation",
          "type": "address"
        }
      ],
      "name": "Upgraded",
      "type": "event"
    },
    {
      "inputs": [
        {
          "internalType": "uint256",
          "name": "id",
          "type": "uint256"
        },
        {
          "internalType": "string",
          "name": "name",
          "type": "string"
        },
        {
          "internalType": "uint256",
          "name": "price",
          "type": "uint256"
        },
        {
          "internalType": "uint256",
          "name": "stock",
          "type": "uint256"
        }
      ],
      "name": "addProduct",
      "outputs": [],
      "stateMutability": "nonpayable",
      "type": "function"
    },
    {
      "inputs": [
        {
          "internalType": "uint256",
          "name": "id",
          "type": "uint256"
        }
      ],
      "name": "buyProduct",
      "outputs": [],
      "stateMutability": "payable",
      "type": "function"
    },
    {
      "inputs": [
        {
          "internalType": "uint256",
          "name": "id",
          "type": "uint256"
        }
      ],
      "name": "getProduct",
      "outputs": [
        {
          "components": [
            {
              "internalType": "uint256",
              "name": "id",
              "type": "uint256"
            },
            {
              "internalType": "string",
              "name": "name",
              "type": "string"
            },
            {
              "internalType": "uint256",
              "name": "price",
              "type": "uint256"
            },
            {
              "internalType": "uint256",
              "name": "stock",
              "type": "uint256"
            }
          ],
          "internalType": "struct ProductLibrary.Product",
          "name": "",
          "type": "tuple"
        }
      ],
      "stateMutability": "view",
      "type": "function"
    },
    {
      "inputs": [],
      "name": "getProductCount",
      "outputs": [
        {
          "internalType": "uint256",
          "name": "",
          "type": "uint256"
        }
      ],
      "stateMutability": "view",
      "type": "function"
    },
    {
      "inputs": [],
      "name": "getProducts",
      "outputs": [
        {
          "components": [
            {
              "internalType": "uint256",
              "name": "id",
              "type": "uint256"
            },
            {
              "internalType": "string",
              "name": "name",
              "type": "string"
            },
            {
              "internalType": "uint256",
              "name": "price",
              "type": "uint256"
            },
            {
              "internalType": "uint256",
              "name": "stock",
              "type": "uint256"
            }
          ],
          "internalType": "struct ProductLibrary.Product[]",
          "name": "",
          "type": "tuple[]"
        }
      ],
      "stateMutability": "view",
      "type": "function"
    },
    {
      "inputs": [],
      "name": "initialize",
      "outputs": [],
      "stateMutability": "nonpayable",
      "type": "function"
    },
    {
      "inputs": [],
      "name": "owner",
      "outputs": [
        {
          "internalType": "address",
          "name": "",
          "type": "address"
        }
      ],
      "stateMutability": "view",
      "type": "function"
    },
    {
      "inputs": [
        {
          "internalType": "uint256",
          "name": "",
          "type": "uint256"
        }
      ],
      "name": "productIds",
      "outputs": [
        {
          "internalType": "uint256",
          "name": "",
          "type": "uint256"
        }
      ],
      "stateMutability": "view",
      "type": "function"
    },
    {
      "inputs": [
        {
          "internalType": "uint256",
          "name": "",
          "type": "uint256"
        }
      ],
      "name": "products",
      "outputs": [
        {
          "internalType": "uint256",
          "name": "id",
          "type": "uint256"
        },
        {
          "internalType": "string",
          "name": "name",
          "type": "string"
        },
        {
          "internalType": "uint256",
          "name": "price",
          "type": "uint256"
        },
        {
          "internalType": "uint256",
          "name": "stock",
          "type": "uint256"
        }
      ],
      "stateMutability": "view",
      "type": "function"
    },
    {
      "inputs": [],
      "name": "proxiableUUID",
      "outputs": [
        {
          "internalType": "bytes32",
          "name": "",
          "type": "bytes32"
        }
      ],
      "stateMutability": "view",
      "type": "function"
    },
    {
      "inputs": [],
      "name": "renounceOwnership",
      "outputs": [],
      "stateMutability": "nonpayable",
      "type": "function"
    },
    {
      "inputs": [
        {
          "internalType": "address",
          "name": "newOwner",
          "type": "address"
        }
      ],
      "name": "transferOwnership",
      "outputs": [],
      "stateMutability": "nonpayable",
      "type": "function"
    },
    {
      "inputs": [
        {
          "internalType": "address",
          "name": "newImplementation",
          "type": "address"
        }
      ],
      "name": "upgradeTo",
      "outputs": [],
      "stateMutability": "nonpayable",
      "type": "function"
    },
    {
      "inputs": [
        {
          "internalType": "address",
          "name": "newImplementation",
          "type": "address"
        },
        {
          "internalType": "bytes",
          "name": "data",
          "type": "bytes"
        }
      ],
      "name": "upgradeToAndCall",
      "outputs": [],
      "stateMutability": "payable",
      "type": "function"
    },
    {
      "inputs": [],
      "name": "withdraw",
      "outputs": [],
      "stateMutability": "nonpayable",
      "type": "function"
    }
  ],
  "bytecode": "0x60a06040523060805234801561001457600080fd5b5061001d610022565b6100e1565b600054610100900460ff161561008e5760405162461bcd60e51b815260206004820152602760248201527f496e697469616c697a61626c653a20636f6e747261637420697320696e697469604482015266616c697a696e6760c81b606482015260840160405180910390fd5b60005460ff908116146100df576000805460ff191660ff9081179091556040519081527f7f26b83ff96e1f2b6a682f133852f6798a09c465da95921460cefb38474024989060200160405180910390a15b565b6080516119ff610118600039600081816102be015281816103070152818161043101528181610471015261050001526119ff6000f3fe6080604052600436106100e85760003560e01c80638129fc1c1161008a578063c27ed2a211610059578063c27ed2a214610232578063c29b2f2014610252578063cb51bba914610274578063f2fde38b1461029457600080fd5b80638129fc1c146101b55780638642269e146101ca5780638da5cb5b146101dd578063b9db15b41461020557600080fd5b80634f1ef286116100c65780634f1ef2861461014857806352d1902d1461015b578063715018a6146101705780637acc0b201461018557600080fd5b80633659cfe6146100ed5780633ccfd60b1461010f5780634a348da914610124575b600080fd5b3480156100f957600080fd5b5061010d6101083660046113db565b6102b4565b005b34801561011b57600080fd5b5061010d61039c565b34801561013057600080fd5b5060ca545b6040519081526020015b60405180910390f35b61010d610156366004611482565b610427565b34801561016757600080fd5b506101356104f3565b34801561017c57600080fd5b5061010d6105a6565b34801561019157600080fd5b506101a56101a03660046114e4565b6105ba565b60405161013f949392919061154d565b3480156101c157600080fd5b5061010d61066b565b61010d6101d83660046114e4565b610783565b3480156101e957600080fd5b506033546040516001600160a01b03909116815260200161013f565b34801561021157600080fd5b506102256102203660046114e4565b61094e565b60405161013f91906115b8565b34801561023e57600080fd5b5061010d61024d3660046115cb565b610aa4565b34801561025e57600080fd5b50610267610c2a565b60405161013f9190611636565b34801561028057600080fd5b5061013561028f3660046114e4565b610dd8565b3480156102a057600080fd5b5061010d6102af3660046113db565b610df9565b6001600160a01b037f00000000000000000000000000000000000000000000000000000000000000001630036103055760405162461bcd60e51b81526004016102fc90611698565b60405180910390fd5b7f00000000000000000000000000000000000000000000000000000000000000006001600160a01b031661034e600080516020611983833981519152546001600160a01b031690565b6001600160a01b0316146103745760405162461bcd60e51b81526004016102fc906116e4565b61037d81610e6f565b6040805160008082526020820190925261039991839190610e77565b50565b6103a4610fe7565b47806103e95760405162461bcd60e51b81526020600482015260146024820152734e6f2066756e647320746f20776974686472617760601b60448201526064016102fc565b6033546040516001600160a01b039091169082156108fc029083906000818181858888f19350505050158015610423573d6000803e3d6000fd5b5050565b6001600160a01b037f000000000000000000000000000000000000000000000000000000000000000016300361046f5760405162461bcd60e51b81526004016102fc90611698565b7f00000000000000000000000000000000000000000000000000000000000000006001600160a01b03166104b8600080516020611983833981519152546001600160a01b031690565b6001600160a01b0316146104de5760405162461bcd60e51b81526004016102fc906116e4565b6104e782610e6f565b61042382826001610e77565b6000306001600160a01b037f000000000000000000000000000000000000000000000000000000000000000016146105935760405162461bcd60e51b815260206004820152603860248201527f555550535570677261646561626c653a206d757374206e6f742062652063616c60448201527f6c6564207468726f7567682064656c656761746563616c6c000000000000000060648201526084016102fc565b5060008051602061198383398151915290565b6105ae610fe7565b6105b86000611041565b565b60c960205260009081526040902080546001820180549192916105dc90611730565b80601f016020809104026020016040519081016040528092919081815260200182805461060890611730565b80156106555780601f1061062a57610100808354040283529160200191610655565b820191906000526020600020905b81548152906001019060200180831161063857829003601f168201915b5050505050908060020154908060030154905084565b600054610100900460ff161580801561068b5750600054600160ff909116105b806106a55750303b1580156106a5575060005460ff166001145b6107085760405162461bcd60e51b815260206004820152602e60248201527f496e697469616c697a61626c653a20636f6e747261637420697320616c72656160448201526d191e481a5b9a5d1a585b1a5e995960921b60648201526084016102fc565b6000805460ff19166001179055801561072b576000805461ff0019166101001790555b610733611093565b61073b6110c2565b8015610399576000805461ff0019169055604051600181527f7f26b83ff96e1f2b6a682f133852f6798a09c465da95921460cefb38474024989060200160405180910390a150565b600081815260c96020526040812080549091036107db5760405162461bcd60e51b8152602060048201526016602482015275141c9bd91d58dd08191bd95cc81b9bdd08195e1a5cdd60521b60448201526064016102fc565b600081600301541161081e5760405162461bcd60e51b815260206004820152600c60248201526b4f7574206f662073746f636b60a01b60448201526064016102fc565b80600201543410156108695760405162461bcd60e51b8152602060048201526014602482015273125b9cdd59999a58da595b9d081c185e5b595b9d60621b60448201526064016102fc565b600181600301600082825461087e919061177a565b9250508190555060006108953483600201546110e9565b9050801561090157604051339082156108fc029083906000818181858888f193505050501580156108ca573d6000803e3d6000fd5b5060405181815233907fe309aa15fd2f6bd8a58603632508694071e7d35e967bdbb827926e429b7ef34d9060200160405180910390a25b336001600160a01b0316837fa530f889d7f1bd9a73028e48944ca013ab2c6624a31e3fa26f923f4bb719abd5846002015460405161094191815260200190565b60405180910390a3505050565b6109796040518060800160405280600081526020016060815260200160008152602001600081525090565b600082815260c9602052604081205490036109cf5760405162461bcd60e51b8152602060048201526016602482015275141c9bd91d58dd08191bd95cc81b9bdd08195e1a5cdd60521b60448201526064016102fc565b60c9600083815260200190815260200160002060405180608001604052908160008201548152602001600182018054610a0790611730565b80601f0160208091040260200160405190810160405280929190818152602001828054610a3390611730565b8015610a805780601f10610a5557610100808354040283529160200191610a80565b820191906000526020600020905b815481529060010190602001808311610a6357829003601f168201915b50505050508152602001600282015481526020016003820154815250509050919050565b610aac610fe7565b83610aee5760405162461bcd60e51b8152602060048201526012602482015271125b9d985b1a59081c1c9bd91d58dd08125160721b60448201526064016102fc565b60008211610b3e5760405162461bcd60e51b815260206004820152601c60248201527f5072696365206d7573742062652067726561746572207468616e20300000000060448201526064016102fc565b600084815260c960205260408120549003610b895760ca80546001810182556000919091527f42d72674974f694b5f5159593243114d38a5c39c89d6b62fee061ff523240ee1018490555b60408051608081018252858152602080820186815282840186905260608301859052600088815260c99092529290208151815591519091906001820190610bd090826117db565b506040820151816002015560608201518160030155905050837f0107e99fb43ba873db8a5ce7c34a12cd44cd3041167cff32040ddb6aca455ae6848484604051610c1c9392919061189b565b60405180910390a250505050565b60ca5460609060009067ffffffffffffffff811115610c4b57610c4b6113f6565b604051908082528060200260200182016040528015610ca757816020015b610c946040518060800160405280600081526020016060815260200160008152602001600081525090565b815260200190600190039081610c695790505b50905060005b60ca54811015610dd25760c9600060ca8381548110610cce57610cce6118c0565b9060005260206000200154815260200190815260200160002060405180608001604052908160008201548152602001600182018054610d0c90611730565b80601f0160208091040260200160405190810160405280929190818152602001828054610d3890611730565b8015610d855780601f10610d5a57610100808354040283529160200191610d85565b820191906000526020600020905b815481529060010190602001808311610d6857829003601f168201915b5050505050815260200160028201548152602001600382015481525050828281518110610db457610db46118c0565b60200260200101819052508080610dca906118d6565b915050610cad565b50919050565b60ca8181548110610de857600080fd5b600091825260209091200154905081565b610e01610fe7565b6001600160a01b038116610e665760405162461bcd60e51b815260206004820152602660248201527f4f776e61626c653a206e6577206f776e657220697320746865207a65726f206160448201526564647265737360d01b60648201526084016102fc565b61039981611041565b610399610fe7565b7f4910fdfa16fed3260ed0e7147f7cc6da11a60208b5b9406d12a635614ffd91435460ff1615610eaf57610eaa83611145565b505050565b826001600160a01b03166352d1902d6040518163ffffffff1660e01b8152600401602060405180830381865afa925050508015610f09575060408051601f3d908101601f19168201909252610f06918101906118ef565b60015b610f6c5760405162461bcd60e51b815260206004820152602e60248201527f45524331393637557067726164653a206e657720696d706c656d656e7461746960448201526d6f6e206973206e6f74205555505360901b60648201526084016102fc565b6000805160206119838339815191528114610fdb5760405162461bcd60e51b815260206004820152602960248201527f45524331393637557067726164653a20756e737570706f727465642070726f786044820152681a58589b195555525160ba1b60648201526084016102fc565b50610eaa8383836111e1565b6033546001600160a01b031633146105b85760405162461bcd60e51b815260206004820181905260248201527f4f776e61626c653a2063616c6c6572206973206e6f7420746865206f776e657260448201526064016102fc565b603380546001600160a01b038381166001600160a01b0319831681179093556040519116919082907f8be0079c531659141344cd1fd0a4f28419497f9722a3daafe3b4186f6b6457e090600090a35050565b600054610100900460ff166110ba5760405162461bcd60e51b81526004016102fc90611908565b6105b861120c565b600054610100900460ff166105b85760405162461bcd60e51b81526004016102fc90611908565b6000818310156111325760405162461bcd60e51b8152602060048201526014602482015273125b9cdd59999a58da595b9d081c185e5b595b9d60621b60448201526064016102fc565b61113c828461177a565b90505b92915050565b6001600160a01b0381163b6111b25760405162461bcd60e51b815260206004820152602d60248201527f455243313936373a206e657720696d706c656d656e746174696f6e206973206e60448201526c1bdd08184818dbdb9d1c9858dd609a1b60648201526084016102fc565b60008051602061198383398151915280546001600160a01b0319166001600160a01b0392909216919091179055565b6111ea8361123c565b6000825111806111f75750805b15610eaa57611206838361127c565b50505050565b600054610100900460ff166112335760405162461bcd60e51b81526004016102fc90611908565b6105b833611041565b61124581611145565b6040516001600160a01b038216907fbc7cd75a20ee27fd9adebab32041f755214dbc6bffa90cc0225b39da2e5c2d3b90600090a250565b606061113c83836040518060600160405280602781526020016119a3602791396060600080856001600160a01b0316856040516112b99190611953565b600060405180830381855af49150503d80600081146112f4576040519150601f19603f3d011682016040523d82523d6000602084013e6112f9565b606091505b509150915061130a86838387611314565b9695505050505050565b6060831561138357825160000361137c576001600160a01b0385163b61137c5760405162461bcd60e51b815260206004820152601d60248201527f416464726573733a2063616c6c20746f206e6f6e2d636f6e747261637400000060448201526064016102fc565b508161138d565b61138d8383611395565b949350505050565b8151156113a55781518083602001fd5b8060405162461bcd60e51b81526004016102fc919061196f565b80356001600160a01b03811681146113d657600080fd5b919050565b6000602082840312156113ed57600080fd5b61113c826113bf565b634e487b7160e01b600052604160045260246000fd5b600067ffffffffffffffff80841115611427576114276113f6565b604051601f8501601f19908116603f0116810190828211818310171561144f5761144f6113f6565b8160405280935085815286868601111561146857600080fd5b858560208301376000602087830101525050509392505050565b6000806040838503121561149557600080fd5b61149e836113bf565b9150602083013567ffffffffffffffff8111156114ba57600080fd5b8301601f810185136114cb57600080fd5b6114da8582356020840161140c565b9150509250929050565b6000602082840312156114f657600080fd5b5035919050565b60005b83811015611518578181015183820152602001611500565b50506000910152565b600081518084526115398160208601602086016114fd565b601f01601f19169290920160200192915050565b8481526080602082015260006115666080830186611521565b6040830194909452506060015292915050565b8051825260006020820151608060208501526115986080850182611521565b905060408301516040850152606083015160608501528091505092915050565b60208152600061113c6020830184611579565b600080600080608085870312156115e157600080fd5b84359350602085013567ffffffffffffffff8111156115ff57600080fd5b8501601f8101871361161057600080fd5b61161f8782356020840161140c565b949794965050505060408301359260600135919050565b6000602080830181845280855180835260408601915060408160051b870101925083870160005b8281101561168b57603f19888603018452611679858351611579565b9450928501929085019060010161165d565b5092979650505050505050565b6020808252602c908201527f46756e6374696f6e206d7573742062652063616c6c6564207468726f7567682060408201526b19195b1959d85d1958d85b1b60a21b606082015260800190565b6020808252602c908201527f46756e6374696f6e206d7573742062652063616c6c6564207468726f7567682060408201526b6163746976652070726f787960a01b606082015260800190565b600181811c9082168061174457607f821691505b602082108103610dd257634e487b7160e01b600052602260045260246000fd5b634e487b7160e01b600052601160045260246000fd5b8181038181111561113f5761113f611764565b601f821115610eaa57600081815260208120601f850160051c810160208610156117b45750805b601f850160051c820191505b818110156117d3578281556001016117c0565b505050505050565b815167ffffffffffffffff8111156117f5576117f56113f6565b611809816118038454611730565b8461178d565b602080601f83116001811461183e57600084156118265750858301515b600019600386901b1c1916600185901b1785556117d3565b600085815260208120601f198616915b8281101561186d5788860151825594840194600190910190840161184e565b508582101561188b5787850151600019600388901b60f8161c191681555b5050505050600190811b01905550565b6060815260006118ae6060830186611521565b60208301949094525060400152919050565b634e487b7160e01b600052603260045260246000fd5b6000600182016118e8576118e8611764565b5060010190565b60006020828403121561190157600080fd5b5051919050565b6020808252602b908201527f496e697469616c697a61626c653a20636f6e7472616374206973206e6f74206960408201526a6e697469616c697a696e6760a81b606082015260800190565b600082516119658184602087016114fd565b9190910192915050565b60208152600061113c602083018461152156fe360894a13ba1a3210667c828492db98dca3e2076cc3735a920a3ca505d382bbc416464726573733a206c6f772d6c6576656c2064656c65676174652063616c6c206661696c6564a26469706673582212206e3d5ec102436b28ff8f9f4853dcc7bb6ed4392463222e1cfc307cb50b0617a264736f6c63430008130033",
  "linkReferences": {},
  "deployedLinkReferences": {}
}